{
  "_format": "hh-sol-artifact-1",
  "contractName": "Benk",
  "sourceName": "contracts/benk.sol",
  "abi": [
    {
      "inputs": [],
      "stateMutability": "nonpayable",
      "type": "constructor"
    },
    {
      "anonymous": false,
      "inputs": [
        {
          "indexed": true,
          "internalType": "address",
          "name": "to",
          "type": "address"
        },
        {
          "indexed": false,
          "internalType": "uint256",
          "name": "amount",
          "type": "uint256"
        }
      ],
      "name": "GaveMonies",
      "type": "event"
    },
    {
      "anonymous": false,
      "inputs": [
        {
          "indexed": true,
          "internalType": "address",
          "name": "from",
          "type": "address"
        },
        {
          "indexed": false,
          "internalType": "uint256",
          "name": "amount",
          "type": "uint256"
        }
      ],
      "name": "GotMonies",
      "type": "event"
    },
    {
      "inputs": [],
      "name": "benk",
      "outputs": [
        {
          "internalType": "contract ERC20",
          "name": "",
          "type": "address"
        }
      ],
      "stateMutability": "view",
      "type": "function"
    },
    {
      "inputs": [],
      "name": "cashout",
      "outputs": [],
      "stateMutability": "nonpayable",
      "type": "function"
    },
    {
      "inputs": [
        {
          "internalType": "address",
          "name": "newAdmin",
          "type": "address"
        }
      ],
      "name": "changeAdmin",
      "outputs": [],
      "stateMutability": "nonpayable",
      "type": "function"
    },
    {
      "inputs": [
        {
          "internalType": "uint256",
          "name": "newAmount",
          "type": "uint256"
        }
      ],
      "name": "changeDripAmount",
      "outputs": [],
      "stateMutability": "nonpayable",
      "type": "function"
    },
    {
      "inputs": [
        {
          "internalType": "uint256",
          "name": "newInterval",
          "type": "uint256"
        }
      ],
      "name": "changeDripInterval",
      "outputs": [],
      "stateMutability": "nonpayable",
      "type": "function"
    },
    {
      "inputs": [],
      "name": "drip",
      "outputs": [],
      "stateMutability": "nonpayable",
      "type": "function"
    },
    {
      "inputs": [],
      "name": "dripAmount",
      "outputs": [
        {
          "internalType": "uint256",
          "name": "",
          "type": "uint256"
        }
      ],
      "stateMutability": "view",
      "type": "function"
    },
    {
      "inputs": [],
      "name": "dripInterval",
      "outputs": [
        {
          "internalType": "uint256",
          "name": "",
          "type": "uint256"
        }
      ],
      "stateMutability": "view",
      "type": "function"
    },
    {
      "inputs": [],
      "name": "eligible",
      "outputs": [
        {
          "internalType": "bool",
          "name": "",
          "type": "bool"
        }
      ],
      "stateMutability": "view",
      "type": "function"
    },
    {
      "inputs": [],
      "name": "fund",
      "outputs": [],
      "stateMutability": "payable",
      "type": "function"
    }
  ],
  "bytecode": "0x608060405267016345785d8a0000600355610e1060045534801561002257600080fd5b5033600260006101000a81548173ffffffffffffffffffffffffffffffffffffffff021916908373ffffffffffffffffffffffffffffffffffffffff160217905550610bb9806100736000396000f3fe6080604052600436106100915760003560e01c80639f678cca116100595780639f678cca14610155578063b60d42881461016c578063bc6a64d114610176578063d832d92f146101a1578063f999fea7146101cc57610091565b806335a1529b146100965780636a214811146100c157806370dd7e23146100ec57806384054d3d146101155780638f2839701461012c575b600080fd5b3480156100a257600080fd5b506100ab6101f5565b6040516100b89190610760565b60405180910390f35b3480156100cd57600080fd5b506100d66101fb565b6040516100e39190610760565b60405180910390f35b3480156100f857600080fd5b50610113600480360381019061010e91906107ac565b610201565b005b34801561012157600080fd5b5061012a61029b565b005b34801561013857600080fd5b50610153600480360381019061014e9190610837565b610349565b005b34801561016157600080fd5b5061016a61041d565b005b6101746105e1565b005b34801561018257600080fd5b5061018b610631565b60405161019891906108c3565b60405180910390f35b3480156101ad57600080fd5b506101b6610657565b6040516101c391906108f9565b60405180910390f35b3480156101d857600080fd5b506101f360048036038101906101ee91906107ac565b6106ad565b005b60035481565b60045481565b600260009054906101000a900473ffffffffffffffffffffffffffffffffffffffff1673ffffffffffffffffffffffffffffffffffffffff163373ffffffffffffffffffffffffffffffffffffffff1614610291576040517f08c379a000000000000000000000000000000000000000000000000000000000815260040161028890610971565b60405180910390fd5b8060038190555050565b600260009054906101000a900473ffffffffffffffffffffffffffffffffffffffff1673ffffffffffffffffffffffffffffffffffffffff163373ffffffffffffffffffffffffffffffffffffffff161461032b576040517f08c379a000000000000000000000000000000000000000000000000000000000815260040161032290610971565b60405180910390fd5b60003390508073ffffffffffffffffffffffffffffffffffffffff16ff5b600260009054906101000a900473ffffffffffffffffffffffffffffffffffffffff1673ffffffffffffffffffffffffffffffffffffffff163373ffffffffffffffffffffffffffffffffffffffff16146103d9576040517f08c379a00000000000000000000000000000000000000000000000000000000081526004016103d090610971565b60405180910390fd5b80600260006101000a81548173ffffffffffffffffffffffffffffffffffffffff021916908373ffffffffffffffffffffffffffffffffffffffff16021790555050565b600354471015610462576040517f08c379a0000000000000000000000000000000000000000000000000000000008152600401610459906109dd565b60405180910390fd5b61046a610657565b6104a9576040517f08c379a00000000000000000000000000000000000000000000000000000000081526004016104a090610a6f565b60405180910390fd5b600160009054906101000a900473ffffffffffffffffffffffffffffffffffffffff1673ffffffffffffffffffffffffffffffffffffffff1663a9059cbb336003546040518363ffffffff1660e01b8152600401610508929190610a9e565b6020604051808303816000875af1158015610527573d6000803e3d6000fd5b505050506040513d601f19601f8201168201806040525081019061054b9190610af3565b50426000803373ffffffffffffffffffffffffffffffffffffffff1673ffffffffffffffffffffffffffffffffffffffff168152602001908152602001600020819055503373ffffffffffffffffffffffffffffffffffffffff167ff618888dfbe395dbca9f67852efefa0f80529f5b12a45187fe090aaad0384f376003546040516105d79190610760565b60405180910390a2565b3373ffffffffffffffffffffffffffffffffffffffff167f05e94e72a2d5a9edb9f51a23404e6c876ba3287b0658b312404452262a2b4af3346040516106279190610760565b60405180910390a2565b600160009054906101000a900473ffffffffffffffffffffffffffffffffffffffff1681565b6000600454426106679190610b4f565b6000803373ffffffffffffffffffffffffffffffffffffffff1673ffffffffffffffffffffffffffffffffffffffff168152602001908152602001600020541115905090565b600260009054906101000a900473ffffffffffffffffffffffffffffffffffffffff1673ffffffffffffffffffffffffffffffffffffffff163373ffffffffffffffffffffffffffffffffffffffff161461073d576040517f08c379a000000000000000000000000000000000000000000000000000000000815260040161073490610971565b60405180910390fd5b8060048190555050565b6000819050919050565b61075a81610747565b82525050565b60006020820190506107756000830184610751565b92915050565b600080fd5b61078981610747565b811461079457600080fd5b50565b6000813590506107a681610780565b92915050565b6000602082840312156107c2576107c161077b565b5b60006107d084828501610797565b91505092915050565b600073ffffffffffffffffffffffffffffffffffffffff82169050919050565b6000610804826107d9565b9050919050565b610814816107f9565b811461081f57600080fd5b50565b6000813590506108318161080b565b92915050565b60006020828403121561084d5761084c61077b565b5b600061085b84828501610822565b91505092915050565b6000819050919050565b600061088961088461087f846107d9565b610864565b6107d9565b9050919050565b600061089b8261086e565b9050919050565b60006108ad82610890565b9050919050565b6108bd816108a2565b82525050565b60006020820190506108d860008301846108b4565b92915050565b60008115159050919050565b6108f3816108de565b82525050565b600060208201905061090e60008301846108ea565b92915050565b600082825260208201905092915050565b7f6675636b20752e00000000000000000000000000000000000000000000000000600082015250565b600061095b600783610914565b915061096682610925565b602082019050919050565b6000602082019050818103600083015261098a8161094e565b9050919050565b7f696e73756666696369656e742062616c616e6365000000000000000000000000600082015250565b60006109c7601483610914565b91506109d282610991565b602082019050919050565b600060208201905081810360008301526109f6816109ba565b9050919050565b7f796f75277265206265696e672074696d6564206f75742c20747279206c61746560008201527f7200000000000000000000000000000000000000000000000000000000000000602082015250565b6000610a59602183610914565b9150610a64826109fd565b604082019050919050565b60006020820190508181036000830152610a8881610a4c565b9050919050565b610a98816107f9565b82525050565b6000604082019050610ab36000830185610a8f565b610ac06020830184610751565b9392505050565b610ad0816108de565b8114610adb57600080fd5b50565b600081519050610aed81610ac7565b92915050565b600060208284031215610b0957610b0861077b565b5b6000610b1784828501610ade565b91505092915050565b7f4e487b7100000000000000000000000000000000000000000000000000000000600052601160045260246000fd5b6000610b5a82610747565b9150610b6583610747565b925082821015610b7857610b77610b20565b5b82820390509291505056fea26469706673582212205e4dac2d23ab34d48e5dd9087ba3eb12427fee0570292f8e8744269cc3dff13264736f6c634300080c0033",
  "linkReferences": {},
  "deployedLinkReferences": {}
}